{
  "contractName": "TodoApp",
  "abi": [
    {
      "inputs": [],
      "name": "name",
      "outputs": [
        {
          "internalType": "string",
          "name": "",
          "type": "string"
        }
      ],
      "stateMutability": "view",
      "type": "function",
      "constant": true
    },
    {
      "inputs": [
        {
          "internalType": "string",
          "name": "_title",
          "type": "string"
        },
        {
          "internalType": "string",
          "name": "_desc",
          "type": "string"
        },
        {
          "internalType": "uint256",
          "name": "_priority",
          "type": "uint256"
        },
        {
          "internalType": "string",
          "name": "_date",
          "type": "string"
        }
      ],
      "name": "addTask",
      "outputs": [],
      "stateMutability": "nonpayable",
      "type": "function"
    },
    {
      "inputs": [
        {
          "internalType": "uint256",
          "name": "_id",
          "type": "uint256"
        }
      ],
      "name": "getTask",
      "outputs": [
        {
          "components": [
            {
              "internalType": "uint256",
              "name": "id",
              "type": "uint256"
            },
            {
              "internalType": "string",
              "name": "title",
              "type": "string"
            },
            {
              "internalType": "string",
              "name": "description",
              "type": "string"
            },
            {
              "internalType": "string",
              "name": "status",
              "type": "string"
            },
            {
              "internalType": "uint256",
              "name": "priority",
              "type": "uint256"
            },
            {
              "internalType": "string",
              "name": "date",
              "type": "string"
            },
            {
              "internalType": "address",
              "name": "user",
              "type": "address"
            }
          ],
          "internalType": "struct TodoApp.Task",
          "name": "",
          "type": "tuple"
        }
      ],
      "stateMutability": "view",
      "type": "function",
      "constant": true
    },
    {
      "inputs": [
        {
          "internalType": "uint256",
          "name": "_id",
          "type": "uint256"
        },
        {
          "internalType": "string",
          "name": "_title",
          "type": "string"
        },
        {
          "internalType": "string",
          "name": "_desc",
          "type": "string"
        },
        {
          "internalType": "string",
          "name": "_status",
          "type": "string"
        },
        {
          "internalType": "uint256",
          "name": "_priority",
          "type": "uint256"
        },
        {
          "internalType": "string",
          "name": "_date",
          "type": "string"
        }
      ],
      "name": "updateTask",
      "outputs": [],
      "stateMutability": "nonpayable",
      "type": "function"
    },
    {
      "inputs": [
        {
          "internalType": "uint256",
          "name": "_id",
          "type": "uint256"
        }
      ],
      "name": "deleteTask",
      "outputs": [],
      "stateMutability": "nonpayable",
      "type": "function"
    },
    {
      "inputs": [],
      "name": "getAllTasks",
      "outputs": [
        {
          "components": [
            {
              "internalType": "uint256",
              "name": "id",
              "type": "uint256"
            },
            {
              "internalType": "string",
              "name": "title",
              "type": "string"
            },
            {
              "internalType": "string",
              "name": "description",
              "type": "string"
            },
            {
              "internalType": "string",
              "name": "status",
              "type": "string"
            },
            {
              "internalType": "uint256",
              "name": "priority",
              "type": "uint256"
            },
            {
              "internalType": "string",
              "name": "date",
              "type": "string"
            },
            {
              "internalType": "address",
              "name": "user",
              "type": "address"
            }
          ],
          "internalType": "struct TodoApp.Task[]",
          "name": "",
          "type": "tuple[]"
        }
      ],
      "stateMutability": "view",
      "type": "function",
      "constant": true
    }
  ],
  "bytecode": "0x60806040526040518060400160405280600881526020017f546f646f20417070000000000000000000000000000000000000000000000000815250600090805190602001906200005192919062000066565b503480156200005f57600080fd5b506200017b565b828054620000749062000145565b90600052602060002090601f016020900481019282620000985760008555620000e4565b82601f10620000b357805160ff1916838001178555620000e4565b82800160010185558215620000e4579182015b82811115620000e3578251825591602001919060010190620000c6565b5b509050620000f39190620000f7565b5090565b5b8082111562000112576000816000905550600101620000f8565b5090565b7f4e487b7100000000000000000000000000000000000000000000000000000000600052602260045260246000fd5b600060028204905060018216806200015e57607f821691505b6020821081141562000175576200017462000116565b5b50919050565b611e4f806200018b6000396000f3fe608060405234801561001057600080fd5b50600436106100625760003560e01c806306fdde03146100675780631d65e77e14610085578063560f3192146100b5578063779900b4146100d1578063aae040f7146100ef578063fc2bd20f1461010b575b600080fd5b61006f610127565b60405161007c9190611626565b60405180910390f35b61009f600480360381019061009a9190611692565b6101b5565b6040516100ac919061180a565b60405180910390f35b6100cf60048036038101906100ca9190611692565b6105c2565b005b6100d9610b88565b6040516100e6919061199f565b60405180910390f35b61010960048036038101906101049190611af6565b610ed6565b005b61012560048036038101906101209190611bb1565b6110ad565b005b6000805461013490611cdd565b80601f016020809104026020016040519081016040528092919081815260200182805461016090611cdd565b80156101ad5780601f10610182576101008083540402835291602001916101ad565b820191906000526020600020905b81548152906001019060200180831161019057829003601f168201915b505050505081565b6101bd6113ca565b6101c56113ca565b60005b600160003373ffffffffffffffffffffffffffffffffffffffff1673ffffffffffffffffffffffffffffffffffffffff168152602001908152602001600020805490508110156105b75783600160003373ffffffffffffffffffffffffffffffffffffffff1673ffffffffffffffffffffffffffffffffffffffff168152602001908152602001600020828154811061026457610263611d0f565b5b90600052602060002090600702016000015414156105a457600160003373ffffffffffffffffffffffffffffffffffffffff1673ffffffffffffffffffffffffffffffffffffffff16815260200190815260200160002081815481106102cd576102cc611d0f565b5b90600052602060002090600702016040518060e00160405290816000820154815260200160018201805461030090611cdd565b80601f016020809104026020016040519081016040528092919081815260200182805461032c90611cdd565b80156103795780601f1061034e57610100808354040283529160200191610379565b820191906000526020600020905b81548152906001019060200180831161035c57829003601f168201915b5050505050815260200160028201805461039290611cdd565b80601f01602080910402602001604051908101604052809291908181526020018280546103be90611cdd565b801561040b5780601f106103e05761010080835404028352916020019161040b565b820191906000526020600020905b8154815290600101906020018083116103ee57829003601f168201915b5050505050815260200160038201805461042490611cdd565b80601f016020809104026020016040519081016040528092919081815260200182805461045090611cdd565b801561049d5780601f106104725761010080835404028352916020019161049d565b820191906000526020600020905b81548152906001019060200180831161048057829003601f168201915b50505050508152602001600482015481526020016005820180546104c090611cdd565b80601f01602080910402602001604051908101604052809291908181526020018280546104ec90611cdd565b80156105395780601f1061050e57610100808354040283529160200191610539565b820191906000526020600020905b81548152906001019060200180831161051c57829003601f168201915b505050505081526020016006820160009054906101000a900473ffffffffffffffffffffffffffffffffffffffff1673ffffffffffffffffffffffffffffffffffffffff1673ffffffffffffffffffffffffffffffffffffffff1681525050915081925050506105bd565b80806105af90611d6d565b9150506101c8565b50809150505b919050565b60005b600160003373ffffffffffffffffffffffffffffffffffffffff1673ffffffffffffffffffffffffffffffffffffffff16815260200190815260200160002080549050811015610aa55781600160003373ffffffffffffffffffffffffffffffffffffffff1673ffffffffffffffffffffffffffffffffffffffff168152602001908152602001600020828154811061066157610660611d0f565b5b9060005260206000209060070201600001541415610a92576000600160003373ffffffffffffffffffffffffffffffffffffffff1673ffffffffffffffffffffffffffffffffffffffff16815260200190815260200160002082815481106106cc576106cb611d0f565b5b90600052602060002090600702019050600160003373ffffffffffffffffffffffffffffffffffffffff1673ffffffffffffffffffffffffffffffffffffffff16815260200190815260200160002060018060003373ffffffffffffffffffffffffffffffffffffffff1673ffffffffffffffffffffffffffffffffffffffff168152602001908152602001600020805490506107699190611db6565b8154811061077a57610779611d0f565b5b9060005260206000209060070201600160003373ffffffffffffffffffffffffffffffffffffffff1673ffffffffffffffffffffffffffffffffffffffff16815260200190815260200160002083815481106107d9576107d8611d0f565b5b906000526020600020906007020160008201548160000155600182018160010190805461080590611cdd565b61081092919061141d565b50600282018160020190805461082590611cdd565b61083092919061141d565b50600382018160030190805461084590611cdd565b61085092919061141d565b5060048201548160040155600582018160050190805461086f90611cdd565b61087a92919061141d565b506006820160009054906101000a900473ffffffffffffffffffffffffffffffffffffffff168160060160006101000a81548173ffffffffffffffffffffffffffffffffffffffff021916908373ffffffffffffffffffffffffffffffffffffffff16021790555090505080600160003373ffffffffffffffffffffffffffffffffffffffff1673ffffffffffffffffffffffffffffffffffffffff16815260200190815260200160002060018060003373ffffffffffffffffffffffffffffffffffffffff1673ffffffffffffffffffffffffffffffffffffffff168152602001908152602001600020805490506109739190611db6565b8154811061098457610983611d0f565b5b90600052602060002090600702016000820154816000015560018201816001019080546109b090611cdd565b6109bb92919061141d565b5060028201816002019080546109d090611cdd565b6109db92919061141d565b5060038201816003019080546109f090611cdd565b6109fb92919061141d565b50600482015481600401556005820181600501908054610a1a90611cdd565b610a2592919061141d565b506006820160009054906101000a900473ffffffffffffffffffffffffffffffffffffffff168160060160006101000a81548173ffffffffffffffffffffffffffffffffffffffff021916908373ffffffffffffffffffffffffffffffffffffffff160217905550905050505b8080610a9d90611d6d565b9150506105c5565b50600160003373ffffffffffffffffffffffffffffffffffffffff1673ffffffffffffffffffffffffffffffffffffffff168152602001908152602001600020805480610af557610af4611dea565b5b6001900381819060005260206000209060070201600080820160009055600182016000610b2291906114aa565b600282016000610b3291906114aa565b600382016000610b4291906114aa565b6004820160009055600582016000610b5a91906114aa565b6006820160006101000a81549073ffffffffffffffffffffffffffffffffffffffff02191690555050905550565b6060600160003373ffffffffffffffffffffffffffffffffffffffff1673ffffffffffffffffffffffffffffffffffffffff168152602001908152602001600020805480602002602001604051908101604052809291908181526020016000905b82821015610ecd57838290600052602060002090600702016040518060e001604052908160008201548152602001600182018054610c2690611cdd565b80601f0160208091040260200160405190810160405280929190818152602001828054610c5290611cdd565b8015610c9f5780601f10610c7457610100808354040283529160200191610c9f565b820191906000526020600020905b815481529060010190602001808311610c8257829003601f168201915b50505050508152602001600282018054610cb890611cdd565b80601f0160208091040260200160405190810160405280929190818152602001828054610ce490611cdd565b8015610d315780601f10610d0657610100808354040283529160200191610d31565b820191906000526020600020905b815481529060010190602001808311610d1457829003601f168201915b50505050508152602001600382018054610d4a90611cdd565b80601f0160208091040260200160405190810160405280929190818152602001828054610d7690611cdd565b8015610dc35780601f10610d9857610100808354040283529160200191610dc3565b820191906000526020600020905b815481529060010190602001808311610da657829003601f168201915b5050505050815260200160048201548152602001600582018054610de690611cdd565b80601f0160208091040260200160405190810160405280929190818152602001828054610e1290611cdd565b8015610e5f5780601f10610e3457610100808354040283529160200191610e5f565b820191906000526020600020905b815481529060010190602001808311610e4257829003601f168201915b505050505081526020016006820160009054906101000a900473ffffffffffffffffffffffffffffffffffffffff1673ffffffffffffffffffffffffffffffffffffffff1673ffffffffffffffffffffffffffffffffffffffff168152505081526020019060010190610be9565b50505050905090565b60026000815480929190610ee990611d6d565b9190505550600160003373ffffffffffffffffffffffffffffffffffffffff1673ffffffffffffffffffffffffffffffffffffffff1681526020019081526020016000206040518060e0016040528060025481526020018681526020018581526020016040518060400160405280600481526020017f746f646f0000000000000000000000000000000000000000000000000000000081525081526020018481526020018381526020013373ffffffffffffffffffffffffffffffffffffffff168152509080600181540180825580915050600190039060005260206000209060070201600090919091909150600082015181600001556020820151816001019080519060200190610ffc9291906114ea565b5060408201518160020190805190602001906110199291906114ea565b5060608201518160030190805190602001906110369291906114ea565b506080820151816004015560a082015181600501908051906020019061105d9291906114ea565b5060c08201518160060160006101000a81548173ffffffffffffffffffffffffffffffffffffffff021916908373ffffffffffffffffffffffffffffffffffffffff160217905550505050505050565b60005b600160003373ffffffffffffffffffffffffffffffffffffffff1673ffffffffffffffffffffffffffffffffffffffff168152602001908152602001600020805490508110156113c05786600160003373ffffffffffffffffffffffffffffffffffffffff1673ffffffffffffffffffffffffffffffffffffffff168152602001908152602001600020828154811061114c5761114b611d0f565b5b90600052602060002090600702016000015414156113ad5785600160003373ffffffffffffffffffffffffffffffffffffffff1673ffffffffffffffffffffffffffffffffffffffff16815260200190815260200160002082815481106111b6576111b5611d0f565b5b906000526020600020906007020160010190805190602001906111da9291906114ea565b5084600160003373ffffffffffffffffffffffffffffffffffffffff1673ffffffffffffffffffffffffffffffffffffffff168152602001908152602001600020828154811061122d5761122c611d0f565b5b906000526020600020906007020160020190805190602001906112519291906114ea565b5083600160003373ffffffffffffffffffffffffffffffffffffffff1673ffffffffffffffffffffffffffffffffffffffff16815260200190815260200160002082815481106112a4576112a3611d0f565b5b906000526020600020906007020160030190805190602001906112c89291906114ea565b5082600160003373ffffffffffffffffffffffffffffffffffffffff1673ffffffffffffffffffffffffffffffffffffffff168152602001908152602001600020828154811061131b5761131a611d0f565b5b90600052602060002090600702016004018190555081600160003373ffffffffffffffffffffffffffffffffffffffff1673ffffffffffffffffffffffffffffffffffffffff168152602001908152602001600020828154811061138257611381611d0f565b5b906000526020600020906007020160050190805190602001906113a69291906114ea565b50506113c2565b80806113b890611d6d565b9150506110b0565b505b505050505050565b6040518060e00160405280600081526020016060815260200160608152602001606081526020016000815260200160608152602001600073ffffffffffffffffffffffffffffffffffffffff1681525090565b82805461142990611cdd565b90600052602060002090601f01602090048101928261144b5760008555611499565b82601f1061145c5780548555611499565b8280016001018555821561149957600052602060002091601f016020900482015b8281111561149857825482559160010191906001019061147d565b5b5090506114a69190611570565b5090565b5080546114b690611cdd565b6000825580601f106114c857506114e7565b601f0160209004906000526020600020908101906114e69190611570565b5b50565b8280546114f690611cdd565b90600052602060002090601f016020900481019282611518576000855561155f565b82601f1061153157805160ff191683800117855561155f565b8280016001018555821561155f579182015b8281111561155e578251825591602001919060010190611543565b5b50905061156c9190611570565b5090565b5b80821115611589576000816000905550600101611571565b5090565b600081519050919050565b600082825260208201905092915050565b60005b838110156115c75780820151818401526020810190506115ac565b838111156115d6576000848401525b50505050565b6000601f19601f8301169050919050565b60006115f88261158d565b6116028185611598565b93506116128185602086016115a9565b61161b816115dc565b840191505092915050565b6000602082019050818103600083015261164081846115ed565b905092915050565b6000604051905090565b600080fd5b600080fd5b6000819050919050565b61166f8161165c565b811461167a57600080fd5b50565b60008135905061168c81611666565b92915050565b6000602082840312156116a8576116a7611652565b5b60006116b68482850161167d565b91505092915050565b6116c88161165c565b82525050565b600082825260208201905092915050565b60006116ea8261158d565b6116f481856116ce565b93506117048185602086016115a9565b61170d816115dc565b840191505092915050565b600073ffffffffffffffffffffffffffffffffffffffff82169050919050565b600061174382611718565b9050919050565b61175381611738565b82525050565b600060e08301600083015161177160008601826116bf565b506020830151848203602086015261178982826116df565b915050604083015184820360408601526117a382826116df565b915050606083015184820360608601526117bd82826116df565b91505060808301516117d260808601826116bf565b5060a083015184820360a08601526117ea82826116df565b91505060c08301516117ff60c086018261174a565b508091505092915050565b600060208201905081810360008301526118248184611759565b905092915050565b600081519050919050565b600082825260208201905092915050565b6000819050602082019050919050565b600060e08301600083015161187060008601826116bf565b506020830151848203602086015261188882826116df565b915050604083015184820360408601526118a282826116df565b915050606083015184820360608601526118bc82826116df565b91505060808301516118d160808601826116bf565b5060a083015184820360a08601526118e982826116df565b91505060c08301516118fe60c086018261174a565b508091505092915050565b60006119158383611858565b905092915050565b6000602082019050919050565b60006119358261182c565b61193f8185611837565b93508360208202850161195185611848565b8060005b8581101561198d578484038952815161196e8582611909565b94506119798361191d565b925060208a01995050600181019050611955565b50829750879550505050505092915050565b600060208201905081810360008301526119b9818461192a565b905092915050565b600080fd5b600080fd5b7f4e487b7100000000000000000000000000000000000000000000000000000000600052604160045260246000fd5b611a03826115dc565b810181811067ffffffffffffffff82111715611a2257611a216119cb565b5b80604052505050565b6000611a35611648565b9050611a4182826119fa565b919050565b600067ffffffffffffffff821115611a6157611a606119cb565b5b611a6a826115dc565b9050602081019050919050565b82818337600083830152505050565b6000611a99611a9484611a46565b611a2b565b905082815260208101848484011115611ab557611ab46119c6565b5b611ac0848285611a77565b509392505050565b600082601f830112611add57611adc6119c1565b5b8135611aed848260208601611a86565b91505092915050565b60008060008060808587031215611b1057611b0f611652565b5b600085013567ffffffffffffffff811115611b2e57611b2d611657565b5b611b3a87828801611ac8565b945050602085013567ffffffffffffffff811115611b5b57611b5a611657565b5b611b6787828801611ac8565b9350506040611b788782880161167d565b925050606085013567ffffffffffffffff811115611b9957611b98611657565b5b611ba587828801611ac8565b91505092959194509250565b60008060008060008060c08789031215611bce57611bcd611652565b5b6000611bdc89828a0161167d565b965050602087013567ffffffffffffffff811115611bfd57611bfc611657565b5b611c0989828a01611ac8565b955050604087013567ffffffffffffffff811115611c2a57611c29611657565b5b611c3689828a01611ac8565b945050606087013567ffffffffffffffff811115611c5757611c56611657565b5b611c6389828a01611ac8565b9350506080611c7489828a0161167d565b92505060a087013567ffffffffffffffff811115611c9557611c94611657565b5b611ca189828a01611ac8565b9150509295509295509295565b7f4e487b7100000000000000000000000000000000000000000000000000000000600052602260045260246000fd5b60006002820490506001821680611cf557607f821691505b60208210811415611d0957611d08611cae565b5b50919050565b7f4e487b7100000000000000000000000000000000000000000000000000000000600052603260045260246000fd5b7f4e487b7100000000000000000000000000000000000000000000000000000000600052601160045260246000fd5b6000611d788261165c565b91507fffffffffffffffffffffffffffffffffffffffffffffffffffffffffffffffff821415611dab57611daa611d3e565b5b600182019050919050565b6000611dc18261165c565b9150611dcc8361165c565b925082821015611ddf57611dde611d3e565b5b828203905092915050565b7f4e487b7100000000000000000000000000000000000000000000000000000000600052603160045260246000fdfea2646970667358221220ef4d5f7782c2969dfabc09a5b90dc4d165720a795737e3a5ea90709d630ed89264736f6c634300080b0033",
  "immutableReferences": {},
  "source": "// SPDX-License-Identifier: GPL-3.0\r\n\r\npragma solidity >=0.7.0 <0.9.0;\r\n\r\ncontract TodoApp {\r\n    //enum Priorities{ LOW, MEDIUM, HIGH }\r\n    string public name = \"Todo App\";\r\n\r\n    // Structure for task\r\n    struct Task {\r\n        uint256 id;\r\n        string title;\r\n        string description;\r\n        string status;\r\n        uint256 priority;\r\n        string date;\r\n        address user;\r\n    }\r\n\r\n    mapping(address => Task[]) private Users;\r\n    uint256 idCounter;\r\n\r\n    //event addedTask(address indexed user, string title, uint256 taskId);\r\n\r\n    // Add a task\r\n    function addTask(\r\n        string memory _title,\r\n        string memory _desc,\r\n        uint256 _priority,\r\n        string memory _date\r\n    ) external {\r\n        idCounter++;\r\n        Users[msg.sender].push(\r\n            Task({\r\n                id: idCounter,\r\n                title: _title,\r\n                description: _desc,\r\n                date: _date,\r\n                status: \"todo\",\r\n                priority: _priority,\r\n                user: msg.sender\r\n            })\r\n        );\r\n        //emit addedTask(msg.sender, _title, idCounter);\r\n    }\r\n\r\n    // Get one task\r\n    function getTask(uint256 _id) external view returns (Task memory) {\r\n        //Task storage task = Users[msg.sender][_id];\r\n        Task memory task;\r\n        for (uint256 i = 0; i < Users[msg.sender].length; i++) {\r\n            if (Users[msg.sender][i].id == _id) {\r\n                return task = Users[msg.sender][i];\r\n            }\r\n        }\r\n        return task;\r\n    }\r\n\r\n    // Update a task\r\n    function updateTask(\r\n        uint256 _id,\r\n        string memory _title,\r\n        string memory _desc,\r\n        string memory _status,\r\n        uint256 _priority,\r\n        string memory _date\r\n    ) external {\r\n        for (uint256 i = 0; i < Users[msg.sender].length; i++) {\r\n            // Compare ID's to find task to delete\r\n            if (Users[msg.sender][i].id == _id) {\r\n                Users[msg.sender][i].title = _title;\r\n                Users[msg.sender][i].description = _desc;\r\n                Users[msg.sender][i].status = _status;\r\n                Users[msg.sender][i].priority = _priority;\r\n                Users[msg.sender][i].date = _date;\r\n                return;\r\n            }\r\n        }\r\n    }\r\n\r\n    // Delete a task\r\n    function deleteTask(uint256 _id) external {\r\n        //delete Users[msg.sender][_taskIndex];\r\n\r\n        for (uint256 i = 0; i < Users[msg.sender].length; i++) {\r\n            // Compare ID's to find task to delete\r\n            // And move it to end of array to use pop()\r\n            if (Users[msg.sender][i].id == _id) {\r\n                Task storage removeMe = Users[msg.sender][i];\r\n                Users[msg.sender][i] = Users[msg.sender][\r\n                    Users[msg.sender].length - 1\r\n                ];\r\n                Users[msg.sender][Users[msg.sender].length - 1] = removeMe;\r\n            }\r\n        }\r\n\r\n        Users[msg.sender].pop(); // remove the last task in array/struct\r\n    }\r\n\r\n    // Get all tasks\r\n    function getAllTasks() external view returns (Task[] memory) {\r\n        return Users[msg.sender];\r\n    }\r\n\r\n    // Get task count\r\n    //function getTaskCount() external view returns (uint256) {\r\n    //    return Users[msg.sender].length;\r\n    //}\r\n}\r\n",
  "sourcePath": "C:\\dev\\todo-dapp\\src\\contracts\\TodoApp.sol",
  "compiler": {
    "name": "solc",
    "version": "0.8.11+commit.d7f03943.Emscripten.clang"
  },
  "schemaVersion": "3.4.5",
  "updatedAt": "2022-03-08T21:59:52.447Z",
  "networkType": "ethereum",
  "devdoc": {
    "kind": "dev",
    "methods": {},
    "version": 1
  },
  "userdoc": {
    "kind": "user",
    "methods": {},
    "version": 1
  }
}