{
  "contractName": "TodoApp2",
  "abi": [
    {
      "anonymous": false,
      "inputs": [
        {
          "indexed": true,
          "internalType": "uint256",
          "name": "_memberId",
          "type": "uint256"
        }
      ],
      "name": "createdTask",
      "type": "event"
    },
    {
      "inputs": [
        {
          "internalType": "uint256",
          "name": "",
          "type": "uint256"
        }
      ],
      "name": "todos",
      "outputs": [
        {
          "internalType": "uint256",
          "name": "",
          "type": "uint256"
        }
      ],
      "stateMutability": "view",
      "type": "function"
    },
    {
      "inputs": [
        {
          "internalType": "uint256",
          "name": "id",
          "type": "uint256"
        }
      ],
      "name": "addTodo",
      "outputs": [],
      "stateMutability": "nonpayable",
      "type": "function"
    },
    {
      "inputs": [],
      "name": "checkTodos",
      "outputs": [
        {
          "internalType": "uint256",
          "name": "",
          "type": "uint256"
        }
      ],
      "stateMutability": "view",
      "type": "function"
    },
    {
      "inputs": [
        {
          "internalType": "uint256",
          "name": "id",
          "type": "uint256"
        }
      ],
      "name": "getTodo",
      "outputs": [
        {
          "components": [
            {
              "internalType": "uint256",
              "name": "id",
              "type": "uint256"
            },
            {
              "internalType": "string",
              "name": "title",
              "type": "string"
            }
          ],
          "internalType": "struct TodoApp2.TodoItem",
          "name": "",
          "type": "tuple"
        }
      ],
      "stateMutability": "view",
      "type": "function"
    }
  ],
  "bytecode": "0x608060405234801561001057600080fd5b50610571806100206000396000f3fe608060405234801561001057600080fd5b506004361061004c5760003560e01c806345f3019314610051578063b9ad3d6f1461006d578063bc8bc2b41461008b578063dd68afb6146100bb575b600080fd5b61006b6004803603810190610066919061037c565b6100eb565b005b610075610185565b60405161008291906103b8565b60405180910390f35b6100a560048036038101906100a0919061037c565b610192565b6040516100b291906103b8565b60405180910390f35b6100d560048036038101906100d0919061037c565b6101b6565b6040516100e291906104b8565b60405180910390f35b600080600083815260200190815260200160002090506040518060400160405280600a81526020017f5469746c6520546578740000000000000000000000000000000000000000000081525081600101908051906020019061014e929190610284565b5081816000018190555060018290806001815401808255809150506001900390600052602060002001600090919091909150555050565b6000600180549050905090565b600181815481106101a257600080fd5b906000526020600020016000915090505481565b6101be61030a565b6000806000848152602001908152602001600020905080604051806040016040529081600082015481526020016001820180546101fa90610509565b80601f016020809104026020016040519081016040528092919081815260200182805461022690610509565b80156102735780601f1061024857610100808354040283529160200191610273565b820191906000526020600020905b81548152906001019060200180831161025657829003601f168201915b505050505081525050915050919050565b82805461029090610509565b90600052602060002090601f0160209004810192826102b257600085556102f9565b82601f106102cb57805160ff19168380011785556102f9565b828001600101855582156102f9579182015b828111156102f85782518255916020019190600101906102dd565b5b5090506103069190610324565b5090565b604051806040016040528060008152602001606081525090565b5b8082111561033d576000816000905550600101610325565b5090565b600080fd5b6000819050919050565b61035981610346565b811461036457600080fd5b50565b60008135905061037681610350565b92915050565b60006020828403121561039257610391610341565b5b60006103a084828501610367565b91505092915050565b6103b281610346565b82525050565b60006020820190506103cd60008301846103a9565b92915050565b6103dc81610346565b82525050565b600081519050919050565b600082825260208201905092915050565b60005b8381101561041c578082015181840152602081019050610401565b8381111561042b576000848401525b50505050565b6000601f19601f8301169050919050565b600061044d826103e2565b61045781856103ed565b93506104678185602086016103fe565b61047081610431565b840191505092915050565b600060408301600083015161049360008601826103d3565b50602083015184820360208601526104ab8282610442565b9150508091505092915050565b600060208201905081810360008301526104d2818461047b565b905092915050565b7f4e487b7100000000000000000000000000000000000000000000000000000000600052602260045260246000fd5b6000600282049050600182168061052157607f821691505b60208210811415610535576105346104da565b5b5091905056fea26469706673582212201b0c0b64fd12587de99050587788a634674cff6d0d829b6b3d9f4d463cb4d63164736f6c634300080b0033",
  "immutableReferences": {},
  "source": "// SPDX-License-Identifier: GPL-3.0\r\n\r\npragma solidity >=0.7.0 <0.9.0;\r\n\r\ncontract TodoApp2 {\r\n    struct TodoItem {\r\n        uint256 id;\r\n        //date\r\n        string title;\r\n        //string description;\r\n        //address walletAddress;\r\n        //string status;\r\n        //string priority;\r\n    }\r\n    //TodoItem todoItem;\r\n    event createdTask(uint256 indexed _memberId);\r\n\r\n    mapping(uint256 => TodoItem) todoItems;\r\n    uint256[] public todos;\r\n\r\n    function addTodo(uint256 id) public {\r\n        TodoItem storage newTodo = todoItems[id];\r\n        newTodo.title = \"Title Text\";\r\n        newTodo.id = id;\r\n        todos.push(id);\r\n        //todoItem = TodoItem(id,\"Task 1\", \"Description for task 1\", 0x4feA2E2b93C671C37f691b612ef59c0649775c9C, \"In Progress\", \"Important\");\r\n    }\r\n\r\n    function checkTodos() public view returns (uint256) {\r\n        return todos.length;\r\n    }\r\n\r\n    /*function getAllToDos() public view returns (TodoItem[] memory) {\r\n        return todoItems;\r\n    }*/\r\n\r\n    function getTodo(uint256 id) external view returns (TodoItem memory) {\r\n        TodoItem storage item = todoItems[id];\r\n        return item;\r\n    }\r\n}\r\n",
  "sourcePath": "C:\\dev\\todo-defi-app\\src\\contracts\\TodoApp2.sol",
  "compiler": {
    "name": "solc",
    "version": "0.8.11+commit.d7f03943.Emscripten.clang"
  },
  "schemaVersion": "3.4.5",
  "updatedAt": "2022-03-05T19:33:07.649Z",
  "devdoc": {
    "kind": "dev",
    "methods": {},
    "version": 1
  },
  "userdoc": {
    "kind": "user",
    "methods": {},
    "version": 1
  }
}