{
  "contractName": "TodoApp",
  "abi": [
    {
      "anonymous": false,
      "inputs": [
        {
          "indexed": true,
          "internalType": "address",
          "name": "user",
          "type": "address"
        },
        {
          "indexed": false,
          "internalType": "string",
          "name": "title",
          "type": "string"
        },
        {
          "indexed": false,
          "internalType": "uint256",
          "name": "taskId",
          "type": "uint256"
        }
      ],
      "name": "addedTask",
      "type": "event"
    },
    {
      "inputs": [],
      "name": "name",
      "outputs": [
        {
          "internalType": "string",
          "name": "",
          "type": "string"
        }
      ],
      "stateMutability": "view",
      "type": "function"
    },
    {
      "inputs": [
        {
          "internalType": "string",
          "name": "_title",
          "type": "string"
        },
        {
          "internalType": "string",
          "name": "_desc",
          "type": "string"
        },
        {
          "internalType": "uint256",
          "name": "_priority",
          "type": "uint256"
        },
        {
          "internalType": "string",
          "name": "_date",
          "type": "string"
        }
      ],
      "name": "addTask",
      "outputs": [],
      "stateMutability": "nonpayable",
      "type": "function"
    },
    {
      "inputs": [
        {
          "internalType": "uint256",
          "name": "_id",
          "type": "uint256"
        }
      ],
      "name": "getTask",
      "outputs": [
        {
          "components": [
            {
              "internalType": "uint256",
              "name": "id",
              "type": "uint256"
            },
            {
              "internalType": "string",
              "name": "title",
              "type": "string"
            },
            {
              "internalType": "string",
              "name": "description",
              "type": "string"
            },
            {
              "internalType": "string",
              "name": "status",
              "type": "string"
            },
            {
              "internalType": "uint256",
              "name": "priority",
              "type": "uint256"
            },
            {
              "internalType": "string",
              "name": "date",
              "type": "string"
            },
            {
              "internalType": "address",
              "name": "user",
              "type": "address"
            }
          ],
          "internalType": "struct TodoApp.Task",
          "name": "",
          "type": "tuple"
        }
      ],
      "stateMutability": "view",
      "type": "function"
    },
    {
      "inputs": [
        {
          "internalType": "uint256",
          "name": "_id",
          "type": "uint256"
        },
        {
          "internalType": "string",
          "name": "_title",
          "type": "string"
        },
        {
          "internalType": "string",
          "name": "_desc",
          "type": "string"
        },
        {
          "internalType": "string",
          "name": "_status",
          "type": "string"
        },
        {
          "internalType": "uint256",
          "name": "_priority",
          "type": "uint256"
        },
        {
          "internalType": "string",
          "name": "_date",
          "type": "string"
        }
      ],
      "name": "updateTask",
      "outputs": [],
      "stateMutability": "nonpayable",
      "type": "function"
    },
    {
      "inputs": [
        {
          "internalType": "uint256",
          "name": "_id",
          "type": "uint256"
        }
      ],
      "name": "deleteTask",
      "outputs": [],
      "stateMutability": "nonpayable",
      "type": "function"
    },
    {
      "inputs": [],
      "name": "getAllTasks",
      "outputs": [
        {
          "components": [
            {
              "internalType": "uint256",
              "name": "id",
              "type": "uint256"
            },
            {
              "internalType": "string",
              "name": "title",
              "type": "string"
            },
            {
              "internalType": "string",
              "name": "description",
              "type": "string"
            },
            {
              "internalType": "string",
              "name": "status",
              "type": "string"
            },
            {
              "internalType": "uint256",
              "name": "priority",
              "type": "uint256"
            },
            {
              "internalType": "string",
              "name": "date",
              "type": "string"
            },
            {
              "internalType": "address",
              "name": "user",
              "type": "address"
            }
          ],
          "internalType": "struct TodoApp.Task[]",
          "name": "",
          "type": "tuple[]"
        }
      ],
      "stateMutability": "view",
      "type": "function"
    }
  ],
  "bytecode": "0x60806040526040518060400160405280600881526020017f546f646f20417070000000000000000000000000000000000000000000000000815250600090805190602001906200005192919062000066565b503480156200005f57600080fd5b506200017b565b828054620000749062000145565b90600052602060002090601f016020900481019282620000985760008555620000e4565b82601f10620000b357805160ff1916838001178555620000e4565b82800160010185558215620000e4579182015b82811115620000e3578251825591602001919060010190620000c6565b5b509050620000f39190620000f7565b5090565b5b8082111562000112576000816000905550600101620000f8565b5090565b7f4e487b7100000000000000000000000000000000000000000000000000000000600052602260045260246000fd5b600060028204905060018216806200015e57607f821691505b6020821081141562000175576200017462000116565b5b50919050565b611ee0806200018b6000396000f3fe608060405234801561001057600080fd5b50600436106100625760003560e01c806306fdde03146100675780631d65e77e14610085578063560f3192146100b5578063779900b4146100d1578063aae040f7146100ef578063fc2bd20f1461010b575b600080fd5b61006f610127565b60405161007c9190611678565b60405180910390f35b61009f600480360381019061009a91906116e4565b6101b5565b6040516100ac919061185c565b60405180910390f35b6100cf60048036038101906100ca91906116e4565b6105c2565b005b6100d9610b88565b6040516100e691906119f1565b60405180910390f35b61010960048036038101906101049190611b48565b610ed6565b005b61012560048036038101906101209190611c03565b6110ff565b005b6000805461013490611d2f565b80601f016020809104026020016040519081016040528092919081815260200182805461016090611d2f565b80156101ad5780601f10610182576101008083540402835291602001916101ad565b820191906000526020600020905b81548152906001019060200180831161019057829003601f168201915b505050505081565b6101bd61141c565b6101c561141c565b60005b600160003373ffffffffffffffffffffffffffffffffffffffff1673ffffffffffffffffffffffffffffffffffffffff168152602001908152602001600020805490508110156105b75783600160003373ffffffffffffffffffffffffffffffffffffffff1673ffffffffffffffffffffffffffffffffffffffff168152602001908152602001600020828154811061026457610263611d61565b5b90600052602060002090600702016000015414156105a457600160003373ffffffffffffffffffffffffffffffffffffffff1673ffffffffffffffffffffffffffffffffffffffff16815260200190815260200160002081815481106102cd576102cc611d61565b5b90600052602060002090600702016040518060e00160405290816000820154815260200160018201805461030090611d2f565b80601f016020809104026020016040519081016040528092919081815260200182805461032c90611d2f565b80156103795780601f1061034e57610100808354040283529160200191610379565b820191906000526020600020905b81548152906001019060200180831161035c57829003601f168201915b5050505050815260200160028201805461039290611d2f565b80601f01602080910402602001604051908101604052809291908181526020018280546103be90611d2f565b801561040b5780601f106103e05761010080835404028352916020019161040b565b820191906000526020600020905b8154815290600101906020018083116103ee57829003601f168201915b5050505050815260200160038201805461042490611d2f565b80601f016020809104026020016040519081016040528092919081815260200182805461045090611d2f565b801561049d5780601f106104725761010080835404028352916020019161049d565b820191906000526020600020905b81548152906001019060200180831161048057829003601f168201915b50505050508152602001600482015481526020016005820180546104c090611d2f565b80601f01602080910402602001604051908101604052809291908181526020018280546104ec90611d2f565b80156105395780601f1061050e57610100808354040283529160200191610539565b820191906000526020600020905b81548152906001019060200180831161051c57829003601f168201915b505050505081526020016006820160009054906101000a900473ffffffffffffffffffffffffffffffffffffffff1673ffffffffffffffffffffffffffffffffffffffff1673ffffffffffffffffffffffffffffffffffffffff1681525050915081925050506105bd565b80806105af90611dbf565b9150506101c8565b50809150505b919050565b60005b600160003373ffffffffffffffffffffffffffffffffffffffff1673ffffffffffffffffffffffffffffffffffffffff16815260200190815260200160002080549050811015610aa55781600160003373ffffffffffffffffffffffffffffffffffffffff1673ffffffffffffffffffffffffffffffffffffffff168152602001908152602001600020828154811061066157610660611d61565b5b9060005260206000209060070201600001541415610a92576000600160003373ffffffffffffffffffffffffffffffffffffffff1673ffffffffffffffffffffffffffffffffffffffff16815260200190815260200160002082815481106106cc576106cb611d61565b5b90600052602060002090600702019050600160003373ffffffffffffffffffffffffffffffffffffffff1673ffffffffffffffffffffffffffffffffffffffff16815260200190815260200160002060018060003373ffffffffffffffffffffffffffffffffffffffff1673ffffffffffffffffffffffffffffffffffffffff168152602001908152602001600020805490506107699190611e08565b8154811061077a57610779611d61565b5b9060005260206000209060070201600160003373ffffffffffffffffffffffffffffffffffffffff1673ffffffffffffffffffffffffffffffffffffffff16815260200190815260200160002083815481106107d9576107d8611d61565b5b906000526020600020906007020160008201548160000155600182018160010190805461080590611d2f565b61081092919061146f565b50600282018160020190805461082590611d2f565b61083092919061146f565b50600382018160030190805461084590611d2f565b61085092919061146f565b5060048201548160040155600582018160050190805461086f90611d2f565b61087a92919061146f565b506006820160009054906101000a900473ffffffffffffffffffffffffffffffffffffffff168160060160006101000a81548173ffffffffffffffffffffffffffffffffffffffff021916908373ffffffffffffffffffffffffffffffffffffffff16021790555090505080600160003373ffffffffffffffffffffffffffffffffffffffff1673ffffffffffffffffffffffffffffffffffffffff16815260200190815260200160002060018060003373ffffffffffffffffffffffffffffffffffffffff1673ffffffffffffffffffffffffffffffffffffffff168152602001908152602001600020805490506109739190611e08565b8154811061098457610983611d61565b5b90600052602060002090600702016000820154816000015560018201816001019080546109b090611d2f565b6109bb92919061146f565b5060028201816002019080546109d090611d2f565b6109db92919061146f565b5060038201816003019080546109f090611d2f565b6109fb92919061146f565b50600482015481600401556005820181600501908054610a1a90611d2f565b610a2592919061146f565b506006820160009054906101000a900473ffffffffffffffffffffffffffffffffffffffff168160060160006101000a81548173ffffffffffffffffffffffffffffffffffffffff021916908373ffffffffffffffffffffffffffffffffffffffff160217905550905050505b8080610a9d90611dbf565b9150506105c5565b50600160003373ffffffffffffffffffffffffffffffffffffffff1673ffffffffffffffffffffffffffffffffffffffff168152602001908152602001600020805480610af557610af4611e3c565b5b6001900381819060005260206000209060070201600080820160009055600182016000610b2291906114fc565b600282016000610b3291906114fc565b600382016000610b4291906114fc565b6004820160009055600582016000610b5a91906114fc565b6006820160006101000a81549073ffffffffffffffffffffffffffffffffffffffff02191690555050905550565b6060600160003373ffffffffffffffffffffffffffffffffffffffff1673ffffffffffffffffffffffffffffffffffffffff168152602001908152602001600020805480602002602001604051908101604052809291908181526020016000905b82821015610ecd57838290600052602060002090600702016040518060e001604052908160008201548152602001600182018054610c2690611d2f565b80601f0160208091040260200160405190810160405280929190818152602001828054610c5290611d2f565b8015610c9f5780601f10610c7457610100808354040283529160200191610c9f565b820191906000526020600020905b815481529060010190602001808311610c8257829003601f168201915b50505050508152602001600282018054610cb890611d2f565b80601f0160208091040260200160405190810160405280929190818152602001828054610ce490611d2f565b8015610d315780601f10610d0657610100808354040283529160200191610d31565b820191906000526020600020905b815481529060010190602001808311610d1457829003601f168201915b50505050508152602001600382018054610d4a90611d2f565b80601f0160208091040260200160405190810160405280929190818152602001828054610d7690611d2f565b8015610dc35780601f10610d9857610100808354040283529160200191610dc3565b820191906000526020600020905b815481529060010190602001808311610da657829003601f168201915b5050505050815260200160048201548152602001600582018054610de690611d2f565b80601f0160208091040260200160405190810160405280929190818152602001828054610e1290611d2f565b8015610e5f5780601f10610e3457610100808354040283529160200191610e5f565b820191906000526020600020905b815481529060010190602001808311610e4257829003601f168201915b505050505081526020016006820160009054906101000a900473ffffffffffffffffffffffffffffffffffffffff1673ffffffffffffffffffffffffffffffffffffffff1673ffffffffffffffffffffffffffffffffffffffff168152505081526020019060010190610be9565b50505050905090565b60026000815480929190610ee990611dbf565b9190505550600160003373ffffffffffffffffffffffffffffffffffffffff1673ffffffffffffffffffffffffffffffffffffffff1681526020019081526020016000206040518060e0016040528060025481526020018681526020018581526020016040518060400160405280600481526020017f746f646f0000000000000000000000000000000000000000000000000000000081525081526020018481526020018381526020013373ffffffffffffffffffffffffffffffffffffffff168152509080600181540180825580915050600190039060005260206000209060070201600090919091909150600082015181600001556020820151816001019080519060200190610ffc92919061153c565b50604082015181600201908051906020019061101992919061153c565b50606082015181600301908051906020019061103692919061153c565b506080820151816004015560a082015181600501908051906020019061105d92919061153c565b5060c08201518160060160006101000a81548173ffffffffffffffffffffffffffffffffffffffff021916908373ffffffffffffffffffffffffffffffffffffffff16021790555050503373ffffffffffffffffffffffffffffffffffffffff167f01d553db923ebb2cb2d34ca28a2f646100a6a8b55aa848ff4d28b9913449393b856002546040516110f1929190611e7a565b60405180910390a250505050565b60005b600160003373ffffffffffffffffffffffffffffffffffffffff1673ffffffffffffffffffffffffffffffffffffffff168152602001908152602001600020805490508110156114125786600160003373ffffffffffffffffffffffffffffffffffffffff1673ffffffffffffffffffffffffffffffffffffffff168152602001908152602001600020828154811061119e5761119d611d61565b5b90600052602060002090600702016000015414156113ff5785600160003373ffffffffffffffffffffffffffffffffffffffff1673ffffffffffffffffffffffffffffffffffffffff168152602001908152602001600020828154811061120857611207611d61565b5b9060005260206000209060070201600101908051906020019061122c92919061153c565b5084600160003373ffffffffffffffffffffffffffffffffffffffff1673ffffffffffffffffffffffffffffffffffffffff168152602001908152602001600020828154811061127f5761127e611d61565b5b906000526020600020906007020160020190805190602001906112a392919061153c565b5083600160003373ffffffffffffffffffffffffffffffffffffffff1673ffffffffffffffffffffffffffffffffffffffff16815260200190815260200160002082815481106112f6576112f5611d61565b5b9060005260206000209060070201600301908051906020019061131a92919061153c565b5082600160003373ffffffffffffffffffffffffffffffffffffffff1673ffffffffffffffffffffffffffffffffffffffff168152602001908152602001600020828154811061136d5761136c611d61565b5b90600052602060002090600702016004018190555081600160003373ffffffffffffffffffffffffffffffffffffffff1673ffffffffffffffffffffffffffffffffffffffff16815260200190815260200160002082815481106113d4576113d3611d61565b5b906000526020600020906007020160050190805190602001906113f892919061153c565b5050611414565b808061140a90611dbf565b915050611102565b505b505050505050565b6040518060e00160405280600081526020016060815260200160608152602001606081526020016000815260200160608152602001600073ffffffffffffffffffffffffffffffffffffffff1681525090565b82805461147b90611d2f565b90600052602060002090601f01602090048101928261149d57600085556114eb565b82601f106114ae57805485556114eb565b828001600101855582156114eb57600052602060002091601f016020900482015b828111156114ea5782548255916001019190600101906114cf565b5b5090506114f891906115c2565b5090565b50805461150890611d2f565b6000825580601f1061151a5750611539565b601f01602090049060005260206000209081019061153891906115c2565b5b50565b82805461154890611d2f565b90600052602060002090601f01602090048101928261156a57600085556115b1565b82601f1061158357805160ff19168380011785556115b1565b828001600101855582156115b1579182015b828111156115b0578251825591602001919060010190611595565b5b5090506115be91906115c2565b5090565b5b808211156115db5760008160009055506001016115c3565b5090565b600081519050919050565b600082825260208201905092915050565b60005b838110156116195780820151818401526020810190506115fe565b83811115611628576000848401525b50505050565b6000601f19601f8301169050919050565b600061164a826115df565b61165481856115ea565b93506116648185602086016115fb565b61166d8161162e565b840191505092915050565b60006020820190508181036000830152611692818461163f565b905092915050565b6000604051905090565b600080fd5b600080fd5b6000819050919050565b6116c1816116ae565b81146116cc57600080fd5b50565b6000813590506116de816116b8565b92915050565b6000602082840312156116fa576116f96116a4565b5b6000611708848285016116cf565b91505092915050565b61171a816116ae565b82525050565b600082825260208201905092915050565b600061173c826115df565b6117468185611720565b93506117568185602086016115fb565b61175f8161162e565b840191505092915050565b600073ffffffffffffffffffffffffffffffffffffffff82169050919050565b60006117958261176a565b9050919050565b6117a58161178a565b82525050565b600060e0830160008301516117c36000860182611711565b50602083015184820360208601526117db8282611731565b915050604083015184820360408601526117f58282611731565b9150506060830151848203606086015261180f8282611731565b91505060808301516118246080860182611711565b5060a083015184820360a086015261183c8282611731565b91505060c083015161185160c086018261179c565b508091505092915050565b6000602082019050818103600083015261187681846117ab565b905092915050565b600081519050919050565b600082825260208201905092915050565b6000819050602082019050919050565b600060e0830160008301516118c26000860182611711565b50602083015184820360208601526118da8282611731565b915050604083015184820360408601526118f48282611731565b9150506060830151848203606086015261190e8282611731565b91505060808301516119236080860182611711565b5060a083015184820360a086015261193b8282611731565b91505060c083015161195060c086018261179c565b508091505092915050565b600061196783836118aa565b905092915050565b6000602082019050919050565b60006119878261187e565b6119918185611889565b9350836020820285016119a38561189a565b8060005b858110156119df57848403895281516119c0858261195b565b94506119cb8361196f565b925060208a019950506001810190506119a7565b50829750879550505050505092915050565b60006020820190508181036000830152611a0b818461197c565b905092915050565b600080fd5b600080fd5b7f4e487b7100000000000000000000000000000000000000000000000000000000600052604160045260246000fd5b611a558261162e565b810181811067ffffffffffffffff82111715611a7457611a73611a1d565b5b80604052505050565b6000611a8761169a565b9050611a938282611a4c565b919050565b600067ffffffffffffffff821115611ab357611ab2611a1d565b5b611abc8261162e565b9050602081019050919050565b82818337600083830152505050565b6000611aeb611ae684611a98565b611a7d565b905082815260208101848484011115611b0757611b06611a18565b5b611b12848285611ac9565b509392505050565b600082601f830112611b2f57611b2e611a13565b5b8135611b3f848260208601611ad8565b91505092915050565b60008060008060808587031215611b6257611b616116a4565b5b600085013567ffffffffffffffff811115611b8057611b7f6116a9565b5b611b8c87828801611b1a565b945050602085013567ffffffffffffffff811115611bad57611bac6116a9565b5b611bb987828801611b1a565b9350506040611bca878288016116cf565b925050606085013567ffffffffffffffff811115611beb57611bea6116a9565b5b611bf787828801611b1a565b91505092959194509250565b60008060008060008060c08789031215611c2057611c1f6116a4565b5b6000611c2e89828a016116cf565b965050602087013567ffffffffffffffff811115611c4f57611c4e6116a9565b5b611c5b89828a01611b1a565b955050604087013567ffffffffffffffff811115611c7c57611c7b6116a9565b5b611c8889828a01611b1a565b945050606087013567ffffffffffffffff811115611ca957611ca86116a9565b5b611cb589828a01611b1a565b9350506080611cc689828a016116cf565b92505060a087013567ffffffffffffffff811115611ce757611ce66116a9565b5b611cf389828a01611b1a565b9150509295509295509295565b7f4e487b7100000000000000000000000000000000000000000000000000000000600052602260045260246000fd5b60006002820490506001821680611d4757607f821691505b60208210811415611d5b57611d5a611d00565b5b50919050565b7f4e487b7100000000000000000000000000000000000000000000000000000000600052603260045260246000fd5b7f4e487b7100000000000000000000000000000000000000000000000000000000600052601160045260246000fd5b6000611dca826116ae565b91507fffffffffffffffffffffffffffffffffffffffffffffffffffffffffffffffff821415611dfd57611dfc611d90565b5b600182019050919050565b6000611e13826116ae565b9150611e1e836116ae565b925082821015611e3157611e30611d90565b5b828203905092915050565b7f4e487b7100000000000000000000000000000000000000000000000000000000600052603160045260246000fd5b611e74816116ae565b82525050565b60006040820190508181036000830152611e94818561163f565b9050611ea36020830184611e6b565b939250505056fea2646970667358221220b5de85df65d2b2044965ce5e0deb87ede8fe5e2cd7c2962b113319cfdee9016464736f6c634300080b0033",
  "immutableReferences": {},
  "source": "// SPDX-License-Identifier: GPL-3.0\r\n\r\npragma solidity >=0.7.0 <0.9.0;\r\n\r\ncontract TodoApp {\r\n    //enum Priorities{ LOW, MEDIUM, HIGH }\r\n    string public name = \"Todo App\";\r\n\r\n    // Structure for task\r\n    struct Task {\r\n        uint256 id;\r\n        string title;\r\n        string description;\r\n        string status;\r\n        uint256 priority;\r\n        string date;\r\n        address user;\r\n    }\r\n\r\n    mapping(address => Task[]) private Users;\r\n    uint256 idCounter;\r\n\r\n    event addedTask(address indexed user, string title, uint256 taskId);\r\n\r\n    // Add a task\r\n    function addTask(\r\n        string memory _title,\r\n        string memory _desc,\r\n        uint256 _priority,\r\n        string memory _date\r\n    ) external {\r\n        idCounter++;\r\n        Users[msg.sender].push(\r\n            Task({\r\n                id: idCounter,\r\n                title: _title,\r\n                description: _desc,\r\n                date: _date,\r\n                status: \"todo\",\r\n                priority: _priority,\r\n                user: msg.sender\r\n            })\r\n        );\r\n        emit addedTask(msg.sender, _title, idCounter);\r\n    }\r\n\r\n    // Get one task\r\n    function getTask(uint256 _id) external view returns (Task memory) {\r\n        //Task storage task = Users[msg.sender][_id];\r\n        Task memory task;\r\n        for (uint256 i = 0; i < Users[msg.sender].length; i++) {\r\n            if (Users[msg.sender][i].id == _id) {\r\n                return task = Users[msg.sender][i];\r\n            }\r\n        }\r\n        return task;\r\n    }\r\n\r\n    // Update a task\r\n    function updateTask(\r\n        uint256 _id,\r\n        string memory _title,\r\n        string memory _desc,\r\n        string memory _status,\r\n        uint256 _priority,\r\n        string memory _date\r\n    ) external {\r\n        for (uint256 i = 0; i < Users[msg.sender].length; i++) {\r\n            // Compare ID's to find task to delete\r\n            if (Users[msg.sender][i].id == _id) {\r\n                Users[msg.sender][i].title = _title;\r\n                Users[msg.sender][i].description = _desc;\r\n                Users[msg.sender][i].status = _status;\r\n                Users[msg.sender][i].priority = _priority;\r\n                Users[msg.sender][i].date = _date;\r\n                return;\r\n            }\r\n        }\r\n    }\r\n\r\n    // Delete a task\r\n    function deleteTask(uint256 _id) external {\r\n        //delete Users[msg.sender][_taskIndex];\r\n\r\n        for (uint256 i = 0; i < Users[msg.sender].length; i++) {\r\n            // Compare ID's to find task to delete\r\n            // And move it to end of array to use pop()\r\n            if (Users[msg.sender][i].id == _id) {\r\n                Task storage removeMe = Users[msg.sender][i];\r\n                Users[msg.sender][i] = Users[msg.sender][\r\n                    Users[msg.sender].length - 1\r\n                ];\r\n                Users[msg.sender][Users[msg.sender].length - 1] = removeMe;\r\n            }\r\n        }\r\n\r\n        Users[msg.sender].pop(); // remove the last task in array/struct\r\n    }\r\n\r\n    // Get all tasks\r\n    function getAllTasks() external view returns (Task[] memory) {\r\n        return Users[msg.sender];\r\n    }\r\n\r\n    // Get task count\r\n    //function getTaskCount() external view returns (uint256) {\r\n    //    return Users[msg.sender].length;\r\n    //}\r\n}\r\n",
  "sourcePath": "C:\\dev\\todo-defi-app\\src\\contracts\\TodoApp.sol",
  "compiler": {
    "name": "solc",
    "version": "0.8.11+commit.d7f03943.Emscripten.clang"
  },
  "schemaVersion": "3.4.5",
  "updatedAt": "2022-03-08T17:23:28.527Z",
  "devdoc": {
    "kind": "dev",
    "methods": {},
    "version": 1
  },
  "userdoc": {
    "kind": "user",
    "methods": {},
    "version": 1
  }
}