{
  "contractName": "TodoAppOld",
  "abi": [
    {
      "inputs": [],
      "stateMutability": "nonpayable",
      "type": "constructor"
    },
    {
      "anonymous": false,
      "inputs": [
        {
          "indexed": true,
          "internalType": "uint256",
          "name": "id",
          "type": "uint256"
        },
        {
          "indexed": false,
          "internalType": "string",
          "name": "title",
          "type": "string"
        },
        {
          "indexed": false,
          "internalType": "string",
          "name": "description",
          "type": "string"
        }
      ],
      "name": "TodoAdded",
      "type": "event"
    },
    {
      "inputs": [],
      "name": "todoCount",
      "outputs": [
        {
          "internalType": "uint256",
          "name": "",
          "type": "uint256"
        }
      ],
      "stateMutability": "view",
      "type": "function"
    },
    {
      "inputs": [
        {
          "internalType": "string",
          "name": "_title",
          "type": "string"
        },
        {
          "internalType": "string",
          "name": "_desc",
          "type": "string"
        }
      ],
      "name": "addTodo",
      "outputs": [
        {
          "internalType": "uint256",
          "name": "todoID",
          "type": "uint256"
        }
      ],
      "stateMutability": "nonpayable",
      "type": "function"
    },
    {
      "inputs": [
        {
          "internalType": "uint256",
          "name": "_id",
          "type": "uint256"
        }
      ],
      "name": "removeTodo",
      "outputs": [],
      "stateMutability": "nonpayable",
      "type": "function"
    },
    {
      "inputs": [],
      "name": "getAllTodos",
      "outputs": [
        {
          "components": [
            {
              "internalType": "uint256",
              "name": "id",
              "type": "uint256"
            },
            {
              "internalType": "string",
              "name": "title",
              "type": "string"
            },
            {
              "internalType": "string",
              "name": "description",
              "type": "string"
            }
          ],
          "internalType": "struct TodoAppOld.TodoItem[]",
          "name": "",
          "type": "tuple[]"
        }
      ],
      "stateMutability": "view",
      "type": "function"
    },
    {
      "inputs": [
        {
          "internalType": "uint256",
          "name": "_id",
          "type": "uint256"
        }
      ],
      "name": "getTodo",
      "outputs": [
        {
          "components": [
            {
              "internalType": "uint256",
              "name": "id",
              "type": "uint256"
            },
            {
              "internalType": "string",
              "name": "title",
              "type": "string"
            },
            {
              "internalType": "string",
              "name": "description",
              "type": "string"
            }
          ],
          "internalType": "struct TodoAppOld.TodoItem",
          "name": "",
          "type": "tuple"
        }
      ],
      "stateMutability": "view",
      "type": "function"
    }
  ],
  "bytecode": "0x608060405234801561001057600080fd5b5060006002819055506000600181905550610c06806100306000396000f3fe608060405234801561001057600080fd5b50600436106100575760003560e01c80631b7fb2601461005c5780633be3d7031461008c578063ce2bd5d5146100a8578063dd68afb6146100c6578063fe0dee17146100f6575b600080fd5b61007660048036038101906100719190610778565b610114565b6040516100839190610809565b60405180910390f35b6100a660048036038101906100a19190610850565b610187565b005b6100b06101c7565b6040516100bd9190610a2d565b60405180910390f35b6100e060048036038101906100db9190610850565b6103ba565b6040516100ed9190610aa6565b60405180910390f35b6100fe610514565b60405161010b9190610809565b60405180910390f35b60006001600081548092919061012990610af7565b919050559050600080600083815260200190815260200160002090508181600001819055508381600101908051906020019061016692919061051a565b508281600201908051906020019061017f92919061051a565b505092915050565b6000808281526020019081526020016000206000808201600090556001820160006101b291906105a0565b6002820160006101c291906105a0565b505050565b6060600060015467ffffffffffffffff8111156101e7576101e661064d565b5b60405190808252806020026020018201604052801561022057816020015b61020d6105e0565b8152602001906001900390816102055790505b50905060005b6001548110156103b25760008060008381526020019081526020016000209050806040518060600160405290816000820154815260200160018201805461026c90610b6f565b80601f016020809104026020016040519081016040528092919081815260200182805461029890610b6f565b80156102e55780601f106102ba576101008083540402835291602001916102e5565b820191906000526020600020905b8154815290600101906020018083116102c857829003601f168201915b505050505081526020016002820180546102fe90610b6f565b80601f016020809104026020016040519081016040528092919081815260200182805461032a90610b6f565b80156103775780601f1061034c57610100808354040283529160200191610377565b820191906000526020600020905b81548152906001019060200180831161035a57829003601f168201915b50505050508152505083838151811061039357610392610ba1565b5b60200260200101819052505080806103aa90610af7565b915050610226565b508091505090565b6103c26105e0565b600080838152602001908152602001600020604051806060016040529081600082015481526020016001820180546103f990610b6f565b80601f016020809104026020016040519081016040528092919081815260200182805461042590610b6f565b80156104725780601f1061044757610100808354040283529160200191610472565b820191906000526020600020905b81548152906001019060200180831161045557829003601f168201915b5050505050815260200160028201805461048b90610b6f565b80601f01602080910402602001604051908101604052809291908181526020018280546104b790610b6f565b80156105045780601f106104d957610100808354040283529160200191610504565b820191906000526020600020905b8154815290600101906020018083116104e757829003601f168201915b5050505050815250509050919050565b60015481565b82805461052690610b6f565b90600052602060002090601f016020900481019282610548576000855561058f565b82601f1061056157805160ff191683800117855561058f565b8280016001018555821561058f579182015b8281111561058e578251825591602001919060010190610573565b5b50905061059c9190610601565b5090565b5080546105ac90610b6f565b6000825580601f106105be57506105dd565b601f0160209004906000526020600020908101906105dc9190610601565b5b50565b60405180606001604052806000815260200160608152602001606081525090565b5b8082111561061a576000816000905550600101610602565b5090565b6000604051905090565b600080fd5b600080fd5b600080fd5b600080fd5b6000601f19601f8301169050919050565b7f4e487b7100000000000000000000000000000000000000000000000000000000600052604160045260246000fd5b6106858261063c565b810181811067ffffffffffffffff821117156106a4576106a361064d565b5b80604052505050565b60006106b761061e565b90506106c3828261067c565b919050565b600067ffffffffffffffff8211156106e3576106e261064d565b5b6106ec8261063c565b9050602081019050919050565b82818337600083830152505050565b600061071b610716846106c8565b6106ad565b90508281526020810184848401111561073757610736610637565b5b6107428482856106f9565b509392505050565b600082601f83011261075f5761075e610632565b5b813561076f848260208601610708565b91505092915050565b6000806040838503121561078f5761078e610628565b5b600083013567ffffffffffffffff8111156107ad576107ac61062d565b5b6107b98582860161074a565b925050602083013567ffffffffffffffff8111156107da576107d961062d565b5b6107e68582860161074a565b9150509250929050565b6000819050919050565b610803816107f0565b82525050565b600060208201905061081e60008301846107fa565b92915050565b61082d816107f0565b811461083857600080fd5b50565b60008135905061084a81610824565b92915050565b60006020828403121561086657610865610628565b5b60006108748482850161083b565b91505092915050565b600081519050919050565b600082825260208201905092915050565b6000819050602082019050919050565b6108b2816107f0565b82525050565b600081519050919050565b600082825260208201905092915050565b60005b838110156108f25780820151818401526020810190506108d7565b83811115610901576000848401525b50505050565b6000610912826108b8565b61091c81856108c3565b935061092c8185602086016108d4565b6109358161063c565b840191505092915050565b600060608301600083015161095860008601826108a9565b50602083015184820360208601526109708282610907565b9150506040830151848203604086015261098a8282610907565b9150508091505092915050565b60006109a38383610940565b905092915050565b6000602082019050919050565b60006109c38261087d565b6109cd8185610888565b9350836020820285016109df85610899565b8060005b85811015610a1b57848403895281516109fc8582610997565b9450610a07836109ab565b925060208a019950506001810190506109e3565b50829750879550505050505092915050565b60006020820190508181036000830152610a4781846109b8565b905092915050565b6000606083016000830151610a6760008601826108a9565b5060208301518482036020860152610a7f8282610907565b91505060408301518482036040860152610a998282610907565b9150508091505092915050565b60006020820190508181036000830152610ac08184610a4f565b905092915050565b7f4e487b7100000000000000000000000000000000000000000000000000000000600052601160045260246000fd5b6000610b02826107f0565b91507fffffffffffffffffffffffffffffffffffffffffffffffffffffffffffffffff821415610b3557610b34610ac8565b5b600182019050919050565b7f4e487b7100000000000000000000000000000000000000000000000000000000600052602260045260246000fd5b60006002820490506001821680610b8757607f821691505b60208210811415610b9b57610b9a610b40565b5b50919050565b7f4e487b7100000000000000000000000000000000000000000000000000000000600052603260045260246000fdfea2646970667358221220322729713699e9f6f591df1340676492afe4dad21ce21898bf9100db22069dcd64736f6c634300080b0033",
  "immutableReferences": {},
  "source": "// SPDX-License-Identifier: GPL-3.0\r\n\r\npragma solidity >=0.7.0 <0.9.0;\r\n\r\ncontract TodoAppOld {\r\n    struct TodoItem {\r\n        uint256 id;\r\n        string title;\r\n        string description;\r\n    }\r\n    mapping(uint256 => TodoItem) todoItems;\r\n    uint256 public todoCount;\r\n    uint256 idCounter;\r\n\r\n    event TodoAdded(uint256 indexed id, string title, string description);\r\n\r\n    constructor() {\r\n        idCounter = 0; // only allowed to be incremented. Note: Check out keccak256\r\n        todoCount = 0;\r\n    }\r\n\r\n    \r\n    function addTodo(string memory _title, string memory _desc) public returns (uint todoID) {\r\n        todoID = todoCount++;\r\n        TodoItem storage t = todoItems[todoID];\r\n\r\n        t.id = todoID;\r\n        t.title = _title;\r\n        t.description = _desc;\r\n\r\n        //emit TodoAdded(id, _age, _size);\r\n    }\r\n\r\n    function removeTodo(uint256 _id) public {\r\n        //require(TodoItem[_id].exists, \"Todo does not exist.\");\r\n        delete todoItems[_id];\r\n        //todoCount--;\r\n    }\r\n\r\n    function getAllTodos() public view returns (TodoItem[] memory) {\r\n        TodoItem[] memory allTodos = new TodoItem[](todoCount);\r\n        for (uint256 i = 0; i < todoCount; i++) {\r\n            TodoItem storage todoitem = todoItems[i];\r\n            allTodos[i] = todoitem;\r\n        }\r\n        return allTodos;\r\n    }\r\n\r\n    function getTodo(uint256 _id) public view returns (TodoItem memory) {\r\n        return todoItems[_id];\r\n    }\r\n}\r\n",
  "sourcePath": "C:\\dev\\todo-defi-app\\src\\contracts\\TodoApp-old.sol",
  "compiler": {
    "name": "solc",
    "version": "0.8.11+commit.d7f03943.Emscripten.clang"
  },
  "schemaVersion": "3.4.5",
  "updatedAt": "2022-03-07T18:39:49.017Z",
  "devdoc": {
    "kind": "dev",
    "methods": {},
    "version": 1
  },
  "userdoc": {
    "kind": "user",
    "methods": {},
    "version": 1
  }
}